:020000040800F2
:1000000008390020050100087D2D00080D23000897
:10001000792D0008450C00085D3300080000000041
:10002000000000000000000000000000B5300008E3
:10003000490C0008000000008D2F0008393100082D
:100040001F0100081F0100081F0100081F01000810
:100050001F0100081F0100084B0C0008870C000856
:100060001F0100089D0C0008B30C00081F010008C8
:100070001F0100081F0100081F0100081F010008E0
:100080001F0100081F0100081F0100081F010008D0
:100090001F0100081F0100081F0100081F010008C0
:1000A0001F0100081F0100081F0100081F010008B0
:1000B000013200082D3200081F0100081F0100084E
:1000C0001F0100081F0100081F0100081F01000890
:1000D0001F010008293300081F0100081F01000844
:1000E000610C00081F0100081F010008DFF810D094
:1000F00000F08AFD004800474D5E0008AFF3008025
:10010000083900200648804706480047FEE7FEE71A
:10011000FEE7FEE7FEE7FEE7FEE7FEE7FEE7FEE7B7
:10012000A9310008ED000008202A04DB203A21FA5A
:1001300002F00021704721FA02F3D040C2F1200200
:10014000914008431946704740EA01039B0703D0DA
:1001500009E008C9121F08C0042AFAD203E011F806
:10016000013B00F8013B521EF9D27047D2B201E0C8
:1001700000F8012B491EFBD270470022F6E710B5AC
:1001800013460A4604461946FFF7F0FF204610BD05
:1001900030B504460020034600E05B1C934203D2C6
:1001A000E05CCD5C401BF8D030BDF0B480EA0102C9
:1001B000D40F4200B2EB410F02D20246084611466C
:1001C0004A0042D0C30DDDB2C1F3C752AD1A202D93
:1001D00035DAC1F3160141F4000204B15242C5F10F
:1001E000200602FA06F12A411044B3EBD05F23D077
:1001F000C4B1012DA0EBC35009DCF0BC4FF00042AC
:1002000002EAC352DBB200F5000000F03BBB400045
:1002100000F1807000EBC350A0F1807040EAD17013
:10022000490009E0490841EAC071A0EBC35000F55C
:100230000000400800EBC350F0BC00F01ABB614264
:10024000012202EB4101001BF6E7F0BC704781F090
:100250000041AAE780F00040A7E780EA010210B55C
:1002600002F00043400022D04A001FD0010E01EBF3
:100270001261C0F35600C2F3560240F4000042F48B
:100280000002A0FB022000047F39140400D0401CAF
:1002900050EA124001D44000491EC2B20C0604EBE1
:1002A000D010401C4008802A02D003E0002010BD7E
:1002B00020F00100002900DA0020184310BD30B4FE
:1002C00080EA010202F0004530F0004221F00040D7
:1002D00013D090B1C30DD40DC2F31601C0F31600B4
:1002E000E41A41F4000140F400027D34914201D34C
:1002F000641C00E04900002C02DA30BC002070478A
:100300004FF400000023914201D3891A03434008AF
:100310004FEA4101F7D151B1914202D14FF0004172
:1003200005E002D24FF0010101E06FF0010103EBA3
:10033000C450284430BC00F09CBA2DE9FE4F8046E2
:1003400081EA0300C00F0C46009021F0004123F029
:100350000045B8EB0200A94105D24046214690462F
:100360001C460B46024623F00040104347D0270DA1
:10037000C7F30A00C3F30A510290401A01904028C3
:100380006BDAC3F3130040F4801B0098924620B14F
:100390000023D2EB030A63EB0B0B01985946C0F123
:1003A0004002504600F044FA06460D465046594673
:1003B000019A00F04CFA10EB08006141002487EA32
:1003C000115284EAE7731A4340D0009A62B3019A4B
:1003D000012A4FEA075215DC001B61EB02014FF0C6
:1003E000004202EA0752CDE90042001C41F58011AB
:1003F00032462B4600F0D0FA03B0BDE8F08F4046FD
:100400002146F9E7001B61EB0201001C41F5801356
:1004100000185B412018A2F5001747EB030140EAE2
:10042000D570B6196D4111E06D084FEA360645EA00
:10043000C0754FEA0752001B61EB0201001C41F539
:10044000801149084FEA30000019514132462B46CD
:1004500003B0BDE8F04F00F090BA009801224000D0
:100460000023D0EB020263EBE073009821464FEAD1
:10047000E074B8EB000061EB0401E9E783F00043AE
:100480005BE781F0004158E72DE9FE4F81EA030464
:1004900004F0004421F0004100944FF0000B23F0E1
:1004A000004350EA01045ED052EA03045BD0C3F378
:1004B0000A54C1F30A552C44A4F2F3340194A0FB6E
:1004C0000254C1F3130141F48011C3F3130343F445
:1004D000801301FB024400FB034E840A970A44EA9E
:1004E000815447EA8357A4FB076802958D0A05FBF0
:1004F00007854FEA932C04FB0C542705029D4FEA15
:10050000065847EA1637B5EB08056EEB070C870E61
:10051000920E47EA811742EA8312A7FB0201B6EB6B
:100520000B0164EB00042B0D43EA0C335E1844EB23
:100530001C50DA465146E7FB0201C5F313044FEAAB
:100540000B3343EA14534FEA0432019C43EA060397
:10055000A4F10C040294009CCDE900B400F01CFA54
:1005600003B0BDE8F08F00200146F9E72DE9F04D1A
:1005700081EA030404F0004B21F0004514464FF0DB
:10058000000A23F0004150EA050220D054EA01029B
:100590001DD0C5F30A570246C5F31303C1F3130078
:1005A000C1F30A5640F4801543F48013A7EB060804
:1005B000101BD64608F2FD3873EB050002D308F194
:1005C000010801E092185B41B8F1000F03DA002046
:1005D0000146BDE8F08D00204FF4801106468446A8
:1005E0000EE0171B73EB050705D3121B63EB050326
:1005F00006434CEA010C49084FEA300092185B416F
:1006000050EA0107EDD152EA030012D082EA040059
:1006100083EA0501084305D0101BAB4106D2012235
:10062000002306E000224FF0004302E06FF00102D9
:1006300053101AEB06004CEB085110EB0A0041EB8B
:100640000B01BDE8F04D00F098B9C10F80EAE070F1
:100650000844CA079623002100F014B9962300220B
:10066000114600F00FB90EB540F23341029100215E
:10067000CDE900110A460B4600F08EF903B000BD2B
:1006800000F0004220F00040C10DC0F3160040F41D
:1006900000007F2901DA00207047962903DCC1F1B0
:1006A0009601C84001E096398840002AF4D04042C3
:1006B000704720F00040C10DC0F3160040F4000068
:1006C0007F2901DA00207047962903DCC1F19601E9
:1006D000C840704796398840704770B5C1F30A52D8
:1006E00001F000450024C1F3130140F2FF3341F44F
:1006F00080119A4201DA002070BD40F233439A42E1
:10070000A2F2334203DC5242FFF70EFD00E09040BC
:100710002C43F1D0404270BDC1F30A5210B5C1F371
:10072000130140F2FF3341F480119A4201DA0020B4
:1007300010BD40F233439A42A2F2334203DC5242EC
:10074000FFF7F2FC10BD904010BD00F0004230F009
:1007500000400AD0C10D01F56071C0F3160042EAF5
:100760000151C208400711437047002001467047FD
:1007700030B5041E71F1000404DB4FF00044404228
:1007800064EB0101141E73F1000405DB1C464FF0FD
:100790000043524263EB04038B4208BF824230BDE8
:1007A00030B5041E71F1000404DB4FF000444042F8
:1007B00064EB0101141E73F1000405DB1C464FF0CD
:1007C0000043524263EB0403994208BF904230BD9C
:1007D00001F0004330B421F0004150EA010206D09C
:1007E0000A0DA2F56072C1F31301002A02DC30BCCD
:1007F00000207047440F44EAC104C100E01830BC37
:1008000000EBC25000F035B8002801DBC0F1004019
:10081000002901DBC1F1004181427047002801DB62
:10082000C0F10040002901DBC1F10041884270475E
:10083000202A04DB203A00FA02F1002070479140A0
:10084000C2F1200320FA03F3194390407047202A95
:1008500006DBCB17203A41FA02F043EAE07306E0E8
:1008600041FA02F3D040C2F12002914008431946F8
:1008700070470029A8BF7047401C490008BF20F0FE
:100880000100704710B4B0FA80FC00FA0CF050EA96
:10089000010404BF10BC704749B1CCF1200421FA17
:1008A00004F411FA0CF118BF012121430843A3EB12
:1008B0000C01CB1D4FEA00614FEA102042BF00201F
:1008C00010BC704700EBC35010440029A4BF10BCFB
:1008D0007047401C490008BF20F0010010BC704761
:1008E000F0B4002802DCF0BC00207047C0F3C75110
:1008F000C0F3160040F40000CA0701D14000491EB1
:100900003F2202EB6105002211464FF4000626FA51
:1009100001F31344D418844201D8001B1A46400046
:10092000491C1729F3DD5100814202D24FF0FF31FB
:1009300000E0002102EBC550F0BCFFF79ABF10B5F4
:1009400041000CD0C0F3C751962908DC7E2909DC90
:1009500006DB410204D000F0004040F07E5010BDA4
:10096000002010BDC1F19604C4F1200100FA01F18C
:10097000E040FFF77EFFA04010BD10B5141E73F1DC
:10098000000408DA401C41F1000192185B411A434F
:1009900001D120F0010010BD2DE9F04D92469B469B
:1009A00011B1B1FA81F202E0B0FA80F22032904641
:1009B000FFF73EFF04460F4640EA0A0041EA0B01FA
:1009C00053465A46084313D0114653EA010019D042
:1009D000C8F140025046FFF7A7FB05460E465046B9
:1009E00059464246FFF724FF084305D0012004E0A2
:1009F00020463946BDE8F08D0020054346EAE07602
:100A00002C4337430A986305E40AA0EB0800002250
:100A1000FD0A44EA47540A3002D500200146E9E7BE
:100A2000010510196941DDE9084500196941BDE872
:100A3000F04DA2E72DE9F04D00231A461B1A8A411A
:100A400003DB00200146BDE8F08DC1F30A52C1F37B
:100A5000130141F480154FF0000BD10702D10018AB
:100A60006D41521E0027044640F2FF11384601EB4B
:100A7000620A3E468046024600204FF48011FFF78E
:100A800053FBC2197141BB1846EB0100B4EB030CD8
:100A900075EB000C04D3E41A65EB000517460E460F
:100AA000241908F101006D4180463428E3DDF9196D
:100AB00046EB0600091BA84103D24FF0FF32134654
:100AC00001E0002213461BEB070046EB0A51BDE88C
:100AD000F04DFFF752BF00002DE9F041054621F02F
:100AE00000400C46284309D0C4F30A5040F2334179
:100AF000884205DD28462146BDE8F0812846FBE70F
:100B000040F2FE31884210DC0CDB4FEA043040EA50
:100B1000155050EA053105D0104804F0004101435A
:100B20000020E9E700200146E6E7A0F23340464214
:100B3000C6F1400228462146FFF77AFE074688465E
:100B4000284621463246FFF7EFFA43463A46FFF77A
:100B500014FF3246BDE8F041FFF76ABE0000F03FE7
:100B60002DE9F047C1F30A5401F00048054600277B
:100B7000C1F3130140F2FF3041F4801684421ADAC7
:100B8000B4F57F7F00DC841EA4F2134462429246D7
:100B900028463146FFF7C8FA04465246FFF748FE9A
:100BA00045404E40354301D0012000E0002044EA9A
:100BB000000100201BE040F2334084421ADCA4F222
:100BC000F33228463146FFF733FE0A46784051405B
:100BD000084301D0012000E0002040EA020AA4F20C
:100BE0003344624228463146FFF79EFA5146FFF7EA
:100BF00040FE03E0A4F2334405FA04F057EA080784
:100C000000D04042BDE8F087064C074D06E0E068A2
:100C100040F0010394E8070098471034AC42F6D343
:100C2000FFF768FA50A5000870A50008420005D03B
:100C3000C0F3C7525242914201DC0020704700EBE2
:100C4000C150704700BFFEE7704710B5012000F0AB
:100C50007DF9012001F0A6F8062002F095FB10BDF9
:100C600010B54FF4806000F071F94FF4006000F0AF
:100C70006DF94FF4805000F069F9282002F084FBF0
:100C800001F0C6F810BD10B5022000F05FF9022097
:100C900001F088F8072002F077FB10BD10B508209E
:100CA00000F054F9082001F07DF8092002F06CFBF7
:100CB00010BD10B5102000F049F9102001F072F8B5
:100CC0000A2002F061FB10BD704700000021074AB6
:100CD000D1610749096941F00201054A11611146D4
:100CE0004861096941F0400111617047C00000206E
:100CF000002002400022054BDA61054A126942F0E9
:100D00000102034B1A61018070470000C0000020FF
:100D10000020024000201E49C96801F0100139B1CD
:100D20001C49C96941F002011A4AD16140F0100022
:100D30001749C96801F0040139B11649C96941F080
:100D40000101144AD16140F004001149C96901F060
:100D5000010169B10F49C96941F004010D4AD1612E
:100D600000BF0B49C96921F00101094AD16100BFE7
:100D700000BF40F20111884206D10549C96921F03E
:100D80000101034AD16101E00149C86000BF704719
:100D900000200240C000002070B5044600F07AFA3E
:100DA000054609E0601C38B124B100F073FA401B1D
:100DB000A04201D9032070BD1248C06800F00100B4
:100DC0000028EFD10F48C06800F0200020B100BF1C
:100DD00020200C49C86000BF0A48C06800F010001D
:100DE00048B90848C06900F0010020B90548C0684A
:100DF00000F0040018B1FFF78DFF0120DBE70020B1
:100E0000D9E700000020024070B504460D460022DC
:100E10002946204600F038FA70BD70B504460D46EC
:100E200001222946204600F02FFA70BD70B5044615
:100E300000F030FA06462546681C10B104480078D8
:100E4000054400BF00F026FA801BA842FAD370BD0B
:100E5000100000200348006940F08000014908614B
:100E600000207047002002402DE9FE4F05468B46CA
:100E700017469846012600240020029000BF24480F
:100E8000007E012802D10220BDE8FE8F012020490A
:100E9000087600BF4CF25030FFF77EFF064686BB57
:100EA000012D02D10120029006E0022D02D1022084
:100EB000029001E00420029000241EE02201B946C5
:100EC000C24648465146FFF72FF980B201900220F2
:100ED00000FB04B000900199FFF70CFF4CF250307A
:100EE000FFF75AFF06460B48006920F00100094948
:100EF000086106B104E0601CC4B202988442DDDBE4
:100F000000BF00BF00200249087600BF3046BBE7A3
:100F1000C00000200020024000200849096901F0BB
:100F2000800151B10649054A516006495160114698
:100F3000096901F0800101B10120704700200240E1
:100F400023016745AB89EFCD7047000010B504461B
:100F500004480068204020B1024804602046FFF7A2
:100F6000F3FF10BD140401402DE9F84703460022A9
:100F700094466EE14FF0010808FA02F4D1F80080BF
:100F800008EA0400A0427DD1DFF8DCA2D1F8048099
:100F9000A8EB0A09D0453AD014DCB8F1030F50D0C1
:100FA00009DCB8F1000F31D0B8F1010F1CD0B8F155
:100FB000020F49D120E0B8F1110F18D0B8F1120F8B
:100FC00042D11EE0B9F5881F25D006DCB9F5803F77
:100FD00020D0B9F5801F37D11AE0B9F5001F18D01D
:100FE000B9F5041F30D117E0D1F80CC02DE0D1F8CD
:100FF0000C8008F1040C28E0D1F80C8008F1080CF2
:1010000023E0D1F80C8008F10C0C1EE000BF00BFFB
:1010100000BF00BF00BF00BFD1F80880B8F1000FCB
:1010200002D14FF0040C0BE0D1F80880B8F1010FA9
:1010300003D14FF0080C1C6102E04FF0080C5C611A
:1010400003E04FF0000C00E000BF00BFFF2801D814
:10105000984601E003F104084646FF2802D84FEA0B
:10106000820803E0A2F108084FEA88084746D6F84C
:1010700000804FF00F0909FA07F928EA09080CFA6D
:1010800007F900E088E048EA0908C6F80080D1F8CE
:10109000048008F08058B8F1805F7DD100BFDFF890
:1010A000CC81D8F8188048F00108DFF8C091C9F861
:1010B0001880C846D8F8188008F00108CDF80080DC
:1010C00000BF00BF4FEAB9384FEA920958F82950DB
:1010D0004FEA82784FEA18794FF00F0808FA09F8BA
:1010E00025EA0805DFF88881434502D14FF0000862
:1010F00016E0DFF88081434502D14FF001080FE090
:10110000DFF87481434502D14FF0020808E0DFF8B0
:101110006C81434502D14FF0030801E04FF0040811
:101120004FEA82794FEA197908FA09F848EA050581
:10113000DFF84C814FEA920948F82950D1F8048031
:1011400008F48038B8F5803F0AD1DFF83881D8F844
:10115000008048EA0008DFF82C91C9F8008009E017
:10116000DFF82081D8F8008028EA0008DFF8149121
:10117000C9F80080D1F8048008F40038B8F5003FC1
:1011800010D1DFF8008108F10408D8F8008048EA9F
:101190000008DFF8F09000E05AE009F10409C9F80E
:1011A00000800DE0DFF8DC8008F10408D8F800804A
:1011B00028EA0008DFF8CC9009F10409C9F800809A
:1011C000D1F8048008F48018B8F5801F0ED1DFF83C
:1011D000B48008F10808D8F8008048EA0008DFF871
:1011E000A49009F10809C9F800800DE0DFF89480A7
:1011F00008F10808D8F8008028EA0008DFF8849091
:1012000009F10809C9F80080D1F8048008F4001831
:10121000B8F5001F0ED1DFF86C8008F10C08D8F883
:10122000008048EA0008DFF85C9009F10C09C9F871
:1012300000800DE0DFF84C8008F10C08D8F8008041
:1012400028EA0008DFF83C9009F10C09C9F8008091
:10125000521CD1F8008028FA02F8B8F1000F7FF490
:1012600089AEBDE8F88700000000111000100240B0
:1012700000080140000C0140001001400014014032
:1012800008000140000401400AB1016101E00B04C3
:1012900003617047014800687047000008000020A3
:1012A0000348006803490978084401490860704709
:1012B000080000201000002010B50848006840F029
:1012C000100006490860032000F0BAF8002000F082
:1012D00007F800F02BF8002010BD000000200240AD
:1012E00070B504460E4800784FF47A71B1FBF0F007
:1012F0000C490968B1FBF0F5284600F0F7FB08B18E
:10130000012070BD102C07D200222146501E00F093
:1013100059F80548046001E00120F2E70020F0E7F9
:1013200010000020140000200C00002008B500BFB1
:101330001148806940F001000F49886108468069C2
:1013400000F00100009000BF00BF00BF0846C06968
:1013500040F08050C8610846C06900F0805000909D
:1013600000BF00BF00BF0549486820F0E06040F0C2
:101370000070486000BF08BD00100240000001403E
:1013800010B501460846002807DB00F01F030122C4
:101390009A40034B440943F8242000BF10BD0000CD
:1013A00080E200E001460846002809DB00F01F0348
:1013B00001229A4043099B0003F1E023C3F8002176
:1013C00000BF70472DE9F05F80460D4616460027A6
:1013D00002F028F8074639462A46334601F007004E
:1013E000C0F1070ABAF1040F02D94FF0040A01E074
:1013F000C0F1070AD14600F1040ABAF1070F02D280
:101400004FF0000A01E0A0F1030AD4464FF0010AB0
:101410000AFA09FAAAF1010A0AEA020A0AFA0CFA15
:101420004FF0010B0BFA0CFBABF1010B0BEA030BBA
:101430004AEA0B042146404602F010F8BDE8F09F4E
:1014400000BF00F00702064B19684FF6FF03194072
:10145000044B0B4343EA0221014B196000BF704764
:101460000CED00E00000FA0570B504460D460CB91D
:10147000012070BD5A48006800F00700A8420ED253
:101480005748006820F0070028435549086008467F
:10149000006800F00700A84201D00120E9E72078A9
:1014A00000F0020002281DD1207800F0040004287A
:1014B00005D14C48406840F4E0604A4948602078D3
:1014C00000F00800082805D14648406840F4605004
:1014D000444948604348406820F0F000A168084350
:1014E00040494860207800F0010078B36068012826
:1014F00006D13C48006800F4003090B90120B8E7FC
:101500006068022806D13748006800F0007040B9D2
:101510000120AEE73348006800F0020008B901205E
:10152000A7E73048406820F00300616808432D4970
:101530004860FFF7AFFE064609E0FFF7ABFE801BF1
:1015400041F28831884202D9032092E707E025481A
:10155000406800F00C006168B0EB810FEDD12048CD
:10156000006800F00700A8420ED91D48006820F06E
:10157000070028431A4908600846006800F0070081
:10158000A84201D0012074E7207800F0040004286C
:1015900007D11448406820F4E060E168084311492D
:1015A0004860207800F00800082808D10D484068FD
:1015B00020F46050216940EAC1000A49486000F007
:1015C00019F808494968C1F30311074A515CC8403A
:1015D0000649086006480068FFF782FE002048E7D9
:1015E000002002400010024052A400081400002015
:1015F0000C000020F0B585B00FF26C0C9CE8E010F8
:1016000001A8A0E8E0101CA52D680095002100228B
:10161000002300240020194D696801F00C05F5B184
:10162000042D02D0082D19D101E0154819E001ADB3
:10163000C1F38346AC5D01F4803555B10F4D6D6843
:10164000C5F340451DF805200D4D6543B5FBF2F38C
:1016500002E00C4D04FB05F3184602E000BF084809
:1016600000BF00BF05B0F0BD02030405060708096E
:101670000A0B0C0D0E0F10100102000000100240AA
:1016800000127A0000093D00F8B504460CB90120AB
:10169000F8BD207800F00100002878D0F8484068B4
:1016A00000F00C0004280CD0F548406800F00C0055
:1016B000082811D1F248406800F48030B0F5803F2E
:1016C0000AD1EF48006800F4003000285FD060685D
:1016D00000285CD10120DBE700BF6068B0F5803FE7
:1016E00006D1E748006840F48030E549086028E00A
:1016F000606858B9E248006820F48030E04908602A
:101700000846006820F4802008601AE06068B0F5A0
:10171000A02F0BD1DA48006840F48020D849086037
:101720000846006840F4803008600AE0D448006849
:1017300020F48030D24908600846006820F48020F8
:10174000086000BF606888B1FFF7A4FD054606E0A9
:10175000FFF7A0FD401B642801D9032098E7C84883
:10176000006800F400300028F2D010E0FFF792FD8E
:10177000054606E0FFF78EFD401B642801D90320D3
:1017800086E7BF48006800F400300028F2D12078D6
:1017900000F00200022857D1B948406800F00C0060
:1017A00050B1B748406800F00C00082818D1B44880
:1017B000406800F4803098B9B148006800F0020039
:1017C00020B12069012801D0012061E7AC48006800
:1017D00020F0F800616940EAC100A949086033E0DF
:1017E0002069E8B10120A7490860FFF753FD0546CD
:1017F00006E0FFF74FFD401B022801D9032047E711
:101800009F48006800F002000028F2D09C48006861
:1018100020F0F800616940EAC1009949086013E0CE
:10182000002098490860FFF735FD054606E0FFF700
:1018300031FD401B022801D9032029E790480068A8
:1018400000F002000028F2D1207800F008000828FB
:101850002DD1A069B8B101208B490860FFF71AFDAE
:10186000054606E0FFF716FD401B022801D90320BC
:101870000EE78348406A00F002000028F2D0012001
:1018800001F086FB13E000207F490860FFF702FDAE
:10189000054606E0FFF7FEFC401B022801D90320A5
:1018A000F6E67748406A00F002000028F2D120787E
:1018B00000F00400042873D100277148C06900F0CB
:1018C000805070B900BF6E48C06940F080506C49CC
:1018D000C8610846C06900F08050009000BF00BF9A
:1018E00001276A48006800F48070B0B96748006852
:1018F00040F4807065490860FFF7CCFC054606E0BF
:10190000FFF7C8FC401B642801D90320C0E65F48EC
:10191000006800F480700028F2D000BFE068012861
:1019200006D15748006A40F001005549086227E097
:10193000E06858B95248006A20F001005049086236
:101940000846006A20F00400086219E0E0680528F3
:101950000BD14B48006A40F0040049490862084630
:10196000006A40F0010008620AE04548006A20F081
:101970000100434908620846006A20F0040008623A
:1019800000BFE068A0B1FFF785FC054609E0FFF75E
:1019900081FC401B41F28831884202D9032077E65E
:1019A00022E03748006A00F002000028EFD012E081
:1019B000FFF770FC054608E0FFF76CFC401B41F2A6
:1019C0008831884201D9032062E62D48006A00F080
:1019D00002000028F0D1012F05D12948C06920F06C
:1019E00080502749C86100BFE069C8B324484068F7
:1019F00000F00C00082860D0E069022848D10020DF
:101A000020490866FFF746FC054606E0FFF742FC62
:101A1000401B022801D903203AE61948006800F06B
:101A200000700028F2D1206AB0F5803F07D1144839
:101A3000406820F40030A168084311494860D4E9A7
:101A4000080108430E49496821F4741108430C4900
:101A5000486001200B490866FFF71CFC054607E0BB
:101A60003DE0FFF717FC401B022801D903200FE6D9
:101A70000348006800F000700028F2D02FE000005A
:101A800000100240000042428004424200700040C8
:101A9000002014490866FFF7FDFB054606E0FFF746
:101AA000F9FB401B022801D90320F1E50E4800682C
:101AB00000F000700028F2D111E0E069012800D1A7
:101AC000E6E50948466806F48031206A814204D17F
:101AD00006F47011606A814201D00120D8E500202F
:101AE000D6E50000000042420010024070B50446F6
:101AF0002546681EB0F1807F01D301200FE0681EEB
:101B00004FF0E02148610F214FF0FF3001F0A6FCBB
:101B100000204FF0E021886107200861002070BD9F
:101B200030B502460B4600BF92F83C00012801D1B7
:101B3000022030BD012082F83C0000BF022082F864
:101B40003D00106844681068816824F070041868CB
:101B5000044310684460104D1068A8420BD0106810
:101B6000B0F1804F07D00D4D1068A84203D00C4D46
:101B70001068A84205D121F080015868014310681F
:101B80008160012082F83D0000BF002082F83C0007
:101B900000BF00BFCDE70000002C01400004004062
:101BA000000800402DE9F04104460D4614B901201B
:101BB000BDE8F08194F83D0028B9002084F83C008D
:101BC000204600F051F8022084F83D00206880682B
:101BD00044F20701884321688860211D206801F0D4
:101BE00057FB2068D0F80880206886692068076A5B
:101BF000286840EA080840F203308643A969A868CB
:101C000040EA0120064340F60C4086434FF2F000C4
:101C10008643E969E86840EA012006432869000133
:101C2000296A40EA0130064327F02207696968689B
:101C300040EA011007432068C0F8088020688661E8
:101C400020680762012084F8460084F83E000121E4
:101C50003F200155012084F8420043200155012016
:101C600084F83D000020A3E710B586B004460020AC
:101C7000029003900490059014492068884223D173
:101C800000BF1348C06940F004001149C86108460C
:101C9000C06900F00400019000BF00BF00BF08460B
:101CA000806940F0080088610846806900F00800FB
:101CB000019000BF00BFC02002900020039004905C
:101CC00002A90448FFF750F906B010BD0008004013
:101CD00000100240000C01402DE9F04304460D467F
:101CE00094F83E603F20075D94F84280432010F84E
:101CF00004906DB9012E02D1B8F1010F02D001207C
:101D0000BDE8F083022084F83E0084F8420025E01C
:101D1000042D0CD1012F02D1B9F1010F01D0012006
:101D2000EEE702213F2001554320015516E0012E28
:101D300007D1012F05D1B8F1010F02D1B9F1010F7F
:101D400001D00120DCE7022084F83E0002213F2080
:101D50000155022084F842004320015515B1042D9D
:101D60000CD105E001220021206801F0CBFA10E03F
:101D700001220421206801F0C5FA0AE001220021B5
:101D8000206801F0BFFA01220421206801F0BAFAAC
:101D900000BF00BF2068006840F0010021680860B3
:101DA0000020ADE770B5054608F058F80446012D4F
:101DB00010D0022D04D0082D16D0102D24D119E0FA
:101DC00004F0040028B11148007840F008000F49E1
:101DD000087019E004F0080028B10C48007840F0C1
:101DE00002000A4908700FE004F0020008B104F094
:101DF00077FB09E004F0010028B10448007840F0C6
:101E000020000249087000BF00BF70BD0100002023
:101E100010B509480078012800D110BD07480078A6
:101E200038B903F04FFD20B104F05AFB012008F04F
:101E30004DFA00BFF1E700004C0000200200002036
:101E400070B506480578064800F01CFB65F30200F3
:101E500004462146024800F018FB70BD38000020FF
:101E60000008014010B5CD48007800B110BDCC4845
:101E700000F008FB20F03800CA49097F01F0380162
:101E800040EA01042146C64800F0FFFA00BF6FF0A7
:101E90000100C549086100BFC14800F0F3FA20F015
:101EA0000700C049498B40EA01042146BC4800F0C4
:101EB000ECFABC48807E00F0010098B1B949097F76
:101EC00001F0080109B1012101E04FF0FF3108469E
:101ED000FEF7BBFB0446B54801682046FEF765F9EE
:101EE000B2490860AF48807E00F0020098B1AD4969
:101EF000097F01F0100109B1012101E04FF0FF312C
:101F00000846FEF7A2FB0446A84841682046FEF7B3
:101F10004CF9A6494860A348807E00F0040098B1BF
:101F2000A049097F01F0200109B1012101E04FF032
:101F3000FF310846FEF789FB04469C48816820462D
:101F4000FEF733F9994988601D2001F056FA012007
:101F5000924908709348406B00286BD194480078F0
:101F600094490978884258D093489249097800EBFF
:101F7000C1008C4948630846406B4088401E4FF0C2
:101F80008041C8628748406B00888649888508463A
:101F900090F82E00496B0979884219D08148406B2E
:101FA0000079804981F82E00084690F82E0000EB59
:101FB0008000824901EB80007A4908630846006B83
:101FC000C068400848610861C8608860486008606F
:101FD0007448006B007C7A490988484071498883BD
:101FE0000846006B0068496B4979C8406D49086232
:101FF0000846006B4068496B4979C84069494862A6
:102000000846006B8068496B4979C8406549886219
:10201000496BC88806F0C6FF0CE007F09BF86148E2
:10202000006B407C10B1002006F0BCFF042008F0DB
:1020300061F91BE763480078012801D105F01AF81F
:1020400000205849488308460068096A08445549F1
:10205000086008460068096BC96888421DD9514864
:10206000408B40F001004F49488308460068096BE7
:10207000C968401A4B4908600846006B007C00F0B4
:10208000080028B150480068401E4F49086004E02D
:102090004D480068401C4C49086042484168406A0D
:1020A00008444049486008464068096BC96888424E
:1020B0001DD93C48408B40F002003A49488308460D
:1020C0004068096BC968401A364948600846006B89
:1020D000007C00F0100028B13B484068401E3A499F
:1020E000486004E038484068401C374948602D4843
:1020F0008168806A08442B49886008468068096BBB
:10210000C96888421DD92748408B40F00400254902
:10211000488308468068096BC968401A214988606D
:102120000846006B007C00F0200028B1264880683B
:10213000401E2549886004E023488068401C2249ED
:10214000886022480078042806D11648408B1F4931
:10215000C9880840134948831248808D401E1149A0
:1021600088850846808D60B900210E4A5163114967
:102170000978491CC8B2202800D100200D490870F8
:1021800000BF0848408B12490988484005494883E8
:1021900000200249087000BF68E600003C000020F3
:1021A000000801408834002000040040F83400207A
:1021B0003500002034000020883300201C3100202E
:1021C0003A00002000000020600000204C000020A9
:1021D0003800002070B50446182C06D0212C0FD0F2
:1021E0003F2C05D07E2C0FD106E004F079F982E077
:1021F000012008F07FF87EE0022008F07BF87AE00A
:10220000082008F077F876E07F2C62DDA4F18400E6
:102210001E285DD2DFE800F00F135C5C5C5C5C5C48
:102220005C5C5C5C1C2024282C3034385C3C4044D2
:10223000484C505C5458202008F05CF848E02F4887
:10224000007800F0200010B1402008F053F83FE083
:10225000012008F045F83BE0022008F041F837E0A3
:10226000042008F03DF833E0082008F039F82FE0AA
:10227000102008F035F82BE0202008F031F827E096
:10228000402008F02DF823E0802008F029F81FE016
:10229000012008F011F81BE0022008F00DF817E00B
:1022A000042008F009F813E0082008F005F80FE012
:1022B000102008F001F80BE0202007F0FDFF07E0F8
:1022C000402007F0F9FF03E0802007F0F5FF00BF92
:1022D00010E00B480078401CC5B2FE2D00D100254F
:1022E00008480078854205D00748054909784454D4
:1022F0000348057000BF00BF70BD00004C00002007
:102300002A0000202B000020202F002000BFFEE725
:1023100008B50549C9690143034AD1611146C96934
:102320000140009100BF08BD0010024008B50549FA
:1023300089690143034A916111468969014000910D
:1023400000BF08BD0010024008B505498969014376
:10235000034A9161114689690140009100BF08BD9F
:10236000001002402DE9F04102460B461868C0F308
:102370000F2595FAA5F0B0FA80F47CE00120A0408A
:102380002840002876D0082C04D240F2011000FA30
:1023900004F106E0A4F108004FF00116864046F073
:1023A00080611869D66826EA11260F0A97FAA7F7FE
:1023B000B7FA87F700FA07F73E43D66000BF5868C0
:1023C00002EB116691FAA1FCBCFA8CFC4FEA8C0876
:1023D0004FF00F0C0CFA08FC376827EA0C0791FA4B
:1023E000A1FCBCFA8CFC4FEA8C0C00FA0CFC47EA0E
:1023F0000C07376000BF5868012802D058680928C8
:1024000038D1986802EB116691FAA1FCBCFA8CFCF9
:102410004FEA8C084FF0030C0CFA08FC376827EAE7
:102420000C0791FAA1FCBCFA8CFC4FEA8C0C00FA68
:102430000CFC47EA0C07376000BFD86802EB116656
:1024400091FAA1FCBCFA8CFC4FEA8C084FF0040C0A
:102450000CFA08FC376827EA0C0791FAA1FCBCFAD1
:102460008CFC4FEA8C0C00FA0CFC47EA0C07376036
:1024700000BF00BF641C25FA04F000287FF47EAF83
:10248000BDE8F0810146C8687047C160704710B56B
:10249000044600F0C5FD2060206800F08DFD6060FE
:1024A000606800F099FDA060606800F0A7FDE06042
:1024B00010BD10B503460A460021147B21469068E2
:1024C000014321F48060546840EA040121F4006073
:1024D000146840EA040121F48050D48940EA0401E0
:1024E00021F40050146940EA040121F48040546949
:1024F00040EA040121F40040546940EA04015964AF
:10250000002010BD016821F08001016070478168E2
:1025100021F0800181607047016841F00101016094
:102520007047C16841F00101C1607047416941F0E5
:10253000010141617047000010B5024613681C4854
:10254000824208D0B2F1804F05D01A48824202D0B0
:102550001948824204D123F070004C6840EA040319
:102560001348824208D0B2F1804F05D01148824210
:1025700002D01148824204D123F44070CC6840EA72
:10258000040313608868D06200BF0888906200BFAF
:102590000748824203D10869106300BF00BF00BF33
:1025A000506940F00100506100BF002010BD0000E4
:1025B000002C01400004004000080040014608696A
:1025C00000F001007047000070B50246012901D1FA
:1025D000002416E0042901D1012412E0102901D1C0
:1025E00002240EE0402901D103240AE0B1F5807FE6
:1025F00001D1042405E0B1F5806F01D1052400E08C
:1026000006242346064CE55C02F1180428190468E8
:10261000044DEE5C0425B540AC43046070BD000081
:1026200028A400082FA4000870B50246012901D192
:10263000002416E0042901D1012412E0102901D15F
:1026400002240EE0402901D103240AE0B1F5807F85
:1026500001D1042405E0B1F5806F01D1052400E02B
:1026600006242346064CE55C02F118042819046888
:10267000044DEE5C0825B5402C43046070BD00009D
:1026800028A400082FA400082DE9F04106460C46B6
:1026900015460127012C08D0102C0CD0B4F5807FF2
:1026A0000FD0B4F5805F18D111E02946304600F014
:1026B00087FB074612E02946304600F0BDFB07467F
:1026C0000CE02946304600F0F9FB074606E02946B3
:1026D000304600F02FFC074600E000BF00BF384640
:1026E000BDE8F08181637047C1627047826844F23F
:1026F00007039A430A438260704741627047426809
:1027000022F070020A434260704700002DE9FF4149
:1027100004460D4601270026204600F041F8002817
:1027200033D1E9686868084329690843E16841F2E0
:102730000C6291430843E060A868216921F440518C
:102740000143216100BF6869616921F4407101435F
:10275000616100BF6846FFF79AFE0E48844201D1CE
:10276000039E08E00C48844201D1029E03E00B481E
:10277000844200D1029E46B1286830B1002731461C
:1027800020462A6800F011F800BF384604B0BDE8C2
:10279000F081000000380140004400400048004043
:1027A0000146C868C0F34030704770B501EBC10303
:1027B00003EB01139400B3FBF4F301EBC10404EB4E
:1027C00001149500B4FBF5F46425B4FBF5F404EBB7
:1027D000C40505EB0414A3EB8403322404EB0313B8
:1027E0006424B3FBF4F303F0F00301EBC10404EB46
:1027F00001149500B4FBF5F46425B4FBF5F403EB88
:10280000041401EBC10303EB01139500B3FBF5F3D3
:1028100001EBC10505EB01159600B5FBF6F5642645
:10282000B5FBF6F505EBC50606EB0515A3EB850331
:10283000322505EB03136425B3FBF5F303F00F0317
:1028400023449BB2836070BD00B585B00020019029
:1028500002900390049000BF4C48806940F0100043
:102860004A4988610846806900F01000009000BF66
:1028700000BF00BF0846806940F02000886108461C
:10288000806900F02000009000BF00BF00BF084634
:10289000806940F0040088610846806900F0040007
:1028A000009000BF00BF00BF0846806940F00800EC
:1028B00088610846806900F00800009000BF00BFF2
:1028C00000224FF460413248FEF7DEFC002241F660
:1028D000FF013048FEF7D8FC00224FF448712E4823
:1028E000FEF7D2FC4FF4C04001900120029002207C
:1028F00003900320049001A92548FEF735FB4FF40F
:1029000000400190012002900020039003200490D9
:1029100001A91F48FEF728FB41F6FF0001900120A6
:102920000290002003900320049001A91948FEF7AB
:102930001BFB41F61B4001901848029001200390B8
:1029400001A91548FEF710FB4FF40040019000204C
:1029500002900220039001A90E48FEF705FB4FF4F8
:102960004870019001200290002003900320049001
:1029700001A90948FEF7F8FA002211462820FEF7BF
:1029800021FD2820FEF70EFD05B000BD001002401D
:102990000010014000080140000C0140000021101F
:1029A00010B5002211460620FEF70CFD0620FEF7AA
:1029B000F9FC002211460720FEF704FD0720FEF770
:1029C000F1FC002211460920FEF7FCFC0920FEF76D
:1029D000E9FC002211460A20FEF7F4FC0A20FEF76B
:1029E000E1FC10BD00B599B0142114A8FDF7C5FB9A
:1029F00020210CA8FDF7C1FB182106A8FDF7BDFB9F
:102A0000142101A8FDF7B9FB4FF40060FFF78EFC1D
:102A10000020ADF85000159041F61F4016900020A0
:102A20001790189014A92348FFF786FD2148FFF757
:102A300069FD01211F48FFF7F7FD60200C90002081
:102A40000D900E900F9010901190129013900CAA70
:102A500001211848FFF718FE01211648FFF7B4FDC1
:102A600000211448FFF74BFE1248FFF750FD0020ED
:102A70000690079008908DF82400ADF826004FF4DA
:102A800000500A9000200B9006A90A48FFF711FD9C
:102A90000420FFF74BFC0848019009200290022017
:102AA00003900020049001A90448FFF75BFC19B0D3
:102AB00000BD0000002C014001000104000801409D
:102AC00030B585B014216846FDF757FB0120FFF7AC
:102AD0001FFC00F09FFC05460022114600F04FF954
:102AE000044621461C2000F0A5FC1C2000F078FCC8
:102AF0000020ADF8000001904FF6FF70029000201A
:102B0000039069464FF08040FFF716FD4FF080407C
:102B1000FFF7F8FC00214FF08040FFF7E7FD0021B0
:102B20004FF08040FFF7EBFD4FF08040FFF7EFFCE8
:102B300005B030BD30B585B014216846FDF71DFBEA
:102B40000220FFF7E5FB00F065FC05460022114678
:102B500000F015F9044621461D2000F06BFC1D20F5
:102B600000F03EFC0020ADF8000001904FF6FF7031
:102B700002900020039069460948FFF7DDFC0848F1
:102B8000FFF7C0FC00210648FFF7B0FD0021044814
:102B9000FFF7B5FD0248FFF7BAFC05B030BD0000F5
:102BA0000004004000B58BB0242102A8FDF7E5FA2F
:102BB00000200090019019481949086003204860DE
:102BC0000021174881604FF6FF71C160002101614B
:102BD00081610320029000200390012004900020D6
:102BE00005900F20069000200790012008900020FB
:102BF00009900F200A9002A90948FEF7D3FF08B1F7
:102C0000FEF762F800200090019069460448FEF744
:102C100087FF08B1FEF758F80BB000BD0008004070
:102C2000780000202DE9F0418CB01C2105A8FDF7AB
:102C3000A4FA14216846FDF7A0FA4FF48040FFF78C
:102C400083FB0420FFF780FB45480090092001909A
:102C5000032002900020039069464248FFF782FB60
:102C6000414800900420019069463E48FFF77AFBF6
:102C700025213E4B1B68C3F3022000242546034652
:102C8000C3F1070CBCF1040F02D94FF0040C01E0B2
:102C9000C3F1070C674603F1040CBCF1070F02D225
:102CA0004FF0000C01E0A3F1030C66464FF0010C5D
:102CB0000CFA07FCACF1010C0CEA040C0CFA06FC53
:102CC0004FF0010808FA06F8A8F1010808EA05081B
:102CD0004CEA080200BF002904DB1007030E244859
:102CE000435407E01007040E20480C3001F00F0396
:102CF0001B1FC45400BF2520002809DB00F01F0261
:102D0000012191404209920002F1E022C2F8001133
:102D100000BF4FF4E1300590002006900790089026
:102D20000C20099000200A900B9005A91148FFF78C
:102D3000EDFC00BF0F48006920F490400D49086188
:102D40000846406920F02A00486100BF00BF0846DD
:102D5000C06840F40050C86000BF0CB0BDE8F0810E
:102D60000200020400080140040004040CED00E02D
:102D700000E400E00038014000BFFEE77047F0B516
:102D800003460C4603F00701C1F10700042801D9EE
:102D9000042001E0C1F107000646081D072801D202
:102DA000002000E0C81E05460120B040401E204023
:102DB000A8400127AF407F1E17403843F0BD0000F8
:102DC00070B50246106A20F001001062136A55685F
:102DD000946924F0030424F070000E6840EA0604AD
:102DE00023F002000E6940EA060323F001004E685A
:102DF00040EA06030F48824213D123F008004E69CF
:102E000040EA860323F004008E6840EA860325F436
:102E100080708E6940EA060525F40070CE6940EAAC
:102E2000460555609461C868506300BF1362002076
:102E300070BD0000002C01402DE9F04104460D4614
:102E4000206A20F010002062266AD4F80480A76966
:102E500027F4407727F4E040296840EA012726F06C
:102E60002000296940EA011626F01000696840EA4E
:102E700001161148844213D126F08000696940EAA6
:102E8000811626F04000A96840EA811628F4806087
:102E9000A96940EA810828F40060E96940EAC108AC
:102EA000C4F80480A7612046E968FFF71BFC26628E
:102EB0000020BDE8F0810000002C014070B5024602
:102EC000106A20F480701062136A5568D46924F087
:102ED000030424F070000E6840EA060423F4007036
:102EE0000E6940EA062323F480704E6840EA062308
:102EF0000F48824213D123F400604E6940EA8623D2
:102F000023F480608E6840EA862325F480508E6921
:102F100040EA061525F40050CE6940EA4615556092
:102F2000D461C868D06300BF1362002070BD000088
:102F3000002C014070B50246106A20F480501062E7
:102F4000146A5568D36923F4407323F4E0400E6893
:102F500040EA062324F400500E6940EA063424F4C3
:102F600080504E6840EA06340748824204D125F476
:102F700080408E6940EA86155560D361C868106448
:102F800000BF1462002070BD002C0140704700009B
:102F900008B508490968C9084FF47A72B1FBF2F123
:102FA0004143009100BF00BF00994A1E00920029D2
:102FB000F9D108BD14000020014600BF0448406854
:102FC00000F0F0000009034A125C21FA02F0704799
:102FD0000010024052A40008014600BF05484068A6
:102FE00000F4E060044A02EB1020027821FA02F0BB
:102FF000704700000010024062A40008014600BFB4
:103000000548406800F46050044A02EBD020027882
:1030100021FA02F0704700000010024062A400088C
:1030200010B5002400BF0B48406800F00C0020B130
:10303000042804D0082808D103E0074C07E0064C18
:1030400005E000F00BF8044601E0034C00BF00BFB0
:10305000204610BD0010024000127A00002100221C
:1030600000BF1148406800F4803002461AB1B2F542
:10307000803F0CD101E00D490BE000BF0A484068D9
:10308000C0F34040401C0A4BB3FBF0F101E007499C
:1030900000BF00BF00BF0448406800F47010022366
:1030A00003EB9040484370470010024000093D0088
:1030B00000127A007047000010B50C4890F86000CC
:1030C000012804D141020A48FDF79EFE04E04FF4B6
:1030D00000710748FDF7A1FE00BF0648406C20F4D0
:1030E00000400449486400BF10BD0000A03000202B
:1030F000000C0140002C014010B50C4890F8600015
:10310000012804D141020A48FDF787FE04E04FF48C
:1031100000710748FDF778FE00BF0648406C40F498
:1031200000400449486400BF10BD0000A0300020EA
:10313000000C0140002C014010B5FEF7B1F810BDA5
:1031400000B58FB0282105A8FDF717F814216846AF
:10315000FDF713F801200590000406900020079069
:103160000120099002200C90C1030D914FF4E01151
:103170000E9105A8FEF788FA08B1FDF7A5FD0F200E
:10318000009002200190002002904FF48060039094
:103190000020049002216846FEF766F908B1FDF7A9
:1031A00093FD0FB000BD00001148006840F0010021
:1031B0000F490860084640680E4908400C494860BD
:1031C000084600680C49084009490860084600683C
:1031D00020F4802008600846406820F4FE00486023
:1031E0004FF41F008860C80304490860704700005E
:1031F000001002400000FFF8FFFFF6FE08ED00E0BF
:1032000010B54FF08040FFF7D9F968B100BF6FF0FB
:1032100001004FF08041086100BF00214FF0804065
:10322000FFF76BFAFEF71EFE10BD000010B5164842
:10323000FFF7C4F938B300BF6FF00100124908610D
:1032400000BF00211048FFF758FA1D20002817DBA7
:1032500000F01F02012191400C4A430942F823105B
:1032600000BF00BF00BFBFF34F8F00BF00BF00BF54
:1032700000BF00BF00BFBFF36F8F00BF00BF00BF24
:1032800000BFFEF7DDFD10BD0004004080E100E05E
:1032900010B50268184B984208D0B0F1804F05D0A5
:1032A000164B984202D0164B984203D122F070027E
:1032B0004B681A43104B984208D0B0F1804F05D0AC
:1032C0000E4B984202D00E4B984203D122F440722A
:1032D000CB681A4322F080034C6943EA040202607F
:1032E0008B68C3620B688362034B984201D10B6900
:1032F00003630123436110BD002C01400004004022
:103300000008004030B501F01F05012404FA05F360
:10331000046A9C430462046A01F01F0502FA05F581
:103320002C43046230BD000010B500BF0A48C068DD
:10333000C0F3401070B100BF07484068C4B200BF7E
:103340002046FEF747FF00BF6FF0200002490860EB
:1033500000BF00BF10BD00000038014000BFFEE705
:103360004100080218BF04200A0E18BF40F00100F7
:103370004FF07F4232EA010108BF40F0020001280D
:1033800008BF052070470000002807DB00F01F027F
:1033900001219140024A430942F82310704700007E
:1033A00080E200E0002817DB00F01F0201219140BD
:1033B0000A4A430942F8231000BF00BF00BFBFF311
:1033C0004F8F00BF00BF00BF00BF00BF00BFBFF3F3
:1033D0006F8F00BF00BF00BF7047000080E100E0BA
:1033E000002809DB00F01F020121914042099200F0
:1033F00002F1E022C2F800117047002809DB00F05A
:103400001F02012191404209920002F1E022C2F81C
:103410000011704702480068C0F3022070470000A6
:103420000CED00E002480068C0F302207047000085
:103430000CED00E010B5002804DB0A07130E054A66
:10344000135406E00A07140E034A00F00F031B1F73
:10345000D45410BD00E400E018ED00E010B50028E1
:1034600004DB0A07130E054A135406E00A07140E7C
:10347000034A00F00F031B1FD45410BD00E400E00A
:1034800018ED00E00121FDF7D1BBFCF78EBE002155
:103490000846FCF714BF6FF05E010807FDF7C6BBD6
:1034A0002DE9F04D0D4614464FF07F41B1EB440F2E
:1034B0009EBF4FF0FF312960BDE8F08D4FF0004016
:1034C00040EA0421C4F3C750783810F01F024A4B79
:1034D0004FEA601CC2F120067B44C4F3C750A0F140
:1034E00078004FEA601003EB800053F82C3008BFDF
:1034F000D0E901C612D0D0F804C093402CFA06F7E8
:103500003B4387680CFA02FC27FA06F8C06807FA02
:1035100002F2F0404CEA080C42EA0006A3FB01323A
:10352000ACFB01C0A6FB016101EB0C068E4234BF6F
:103530004FF0010C4FF0000CC1186144BCF1000FBA
:1035400002D0814202D903E0814201D2012000E091
:103550000020104400F120024FEA92188006CA0CA5
:1035600040EA42304F03C5F80080FDF76EF882460E
:103570003846FDF773F86FF01201FDF757FB074669
:103580003046FDF76BF86FF02501FDF74FFB8346E2
:1035900039465046FCF709FE5946FCF706FE00F591
:1035A00000666FF30B0651463046FCF750FE394675
:1035B000FCF74DFE5946FCF74DFE1049FCF74DFE59
:1035C00007460F493046FCF748FE3946FCF7EDFD4B
:1035D00007460C493046FCF740FE3946FCF7E5FD4E
:1035E00014F0004F08BFBDE8F08DC8F1805180F0A5
:1035F00000402960BDE8F08DFC6F0000DB0FC92F93
:1036000022AAFD290000C92F02E008C8121F08C124
:10361000002AFAD170477047002001E001C1121F53
:10362000002AFBD170470000014908607047000084
:10363000480000202DE9F04104460F463E6803F0A3
:103640003BFD00213046FDF7DFF801D8BDE8F081F1
:103650004FF07E513046FDF7E1F801D24FF07E5633
:10366000FF2C13D100250EE0114840F825601149C8
:1036700051F825003146FCF7F0FD0D490C3141F8B9
:103680002500681CC5B2032DEEDB0EE0032C0CDA1E
:10369000074840F82460074951F824003146FCF7F8
:1036A000DCFD03490C3141F8240000BFCEE70000E7
:1036B00004310020B83000202DE9F0474FF0684277
:1036C00002EB40030C460546B3F1654F3CBF02EBED
:1036D0004102B2F1654F80F0CD8000BFC0F3C75208
:1036E000C1F3C753D21A1B2A06DD10F0004F14BFD6
:1036F00087488848BDE8F08712F11A0F2FDA11F0D9
:10370000004F06D010F0004F0CBF83488348BDE83F
:10371000F08721462846FCF7D2FD0646FFF720FE3B
:10372000042808BFFFF7B7FE2846FFF719FE054635
:103730002046FFF715FE04463046FFF711FE042D24
:1037400018BF052D08D1042C18BF052C04D1002862
:1037500004BF0220FFF768FF3046BDE8F087420053
:10376000B2EB410F25D910F0004F19BF6C4F6D4ED1
:103770006D4F6E4E224685F0004415460A4680F095
:10378000004110460A1A5200B2F1807F3ED24840F2
:103790006749DFF8A0A110F0004F18D04FF03F4864
:1037A0003846FCF754FD074651463046FCF74FFDBE
:1037B00017E011F0004F04BF00263746E2D010F0AA
:1037C000004F19BF5C4F5D4E5D4F5E4EDAE74FF024
:1037D0007C583846FCF7E9FC074651463046FCF772
:1037E000E4FC064641462846FCF737FD2146FCF737
:1037F000DCFC824621464046FCF72FFD2946FCF7BB
:1038000029FD5146FCF75BFD044604E021462846AD
:10381000FCF755FD04460146FCF71FFD80464A496A
:10382000FCF71BFD4949FCF7C0FC4146FCF715FDC0
:103830004749FCF7BAFC4146FCF70FFD4549FCF748
:10384000B4FC4146FCF709FD4349FCF7AEFC0546D4
:1038500041462046FCF701FD2946FCF7FEFC3146B7
:10386000FCF7A3FC2146FCF7A0FC3946BDE8F04775
:10387000FCF79BBC4FF07F42B2EB400F28BFB2EB8E
:10388000410F03D2BDE8F047FFF7FFBD40EA010357
:103890005B0008BF44F0FF410AD0B2EB400F08BF05
:1038A000B2EB410F06D125F0804024F0804105465F
:1038B0000C4613E7B2EB400F12BF5FEA410345F03D
:1038C000FF4004F000413FF409AFB2EB410F12BFDB
:1038D0005FEA400205F0004044F0FF413FF4FEAED5
:1038E0004A0092EA40033FF5F9AE002AACBF4FF020
:1038F0009F464FF03E563146FCF7AFFC0546314639
:103900002046FCF7AAFC044628462146E6E60000CD
:10391000DB0FC9BFDB0FC93FDB0F4940DB0F49C0DD
:103920000000C9BF22AAFDB90000C93F22AAFD3983
:103930000060ED3EC30ACE37000049C022AA7DBA1E
:103940000000494022AA7D3A2DAD65BD8FB8D53D16
:103950000FB511BE61C84C3EA8AAAABE2DE9F04120
:10396000C1F30A52A2F2FF362F4A304B0D460446ED
:10397000142E2FDA002E12DAFCF7DFFC0022134699
:10398000FCF70EFF4CD2002DBCBF4FF000450024C9
:1039900046DB55EA040018BF254D19D140E0DFF899
:1039A00094C02CFA06F705EA070C5CEA040C08BF81
:1039B000BDE8F081FCF7C1FC00221346FCF7F0FEE5
:1039C0002ED2002D03DD4FF48010F0400544BD439E
:1039D000002425E0332EC8BFBDE8F081A6F1140C09
:1039E0004FF0FF3727FA0CF73C4208BFBDE8F081E3
:1039F000FCF747FD00221346FCF7D2FE10D2002D43
:103A00000DDD142E08BF6D1C09D0C6F13400012154
:103A100001FA00F02044A04238BF6D1C0446BC43AC
:103A200029462046BDE8F0819C7500883CE4377E3D
:103A30000000F03FFFFF0F002DE9F041C0F3C75138
:103A4000A1F17F050446172DA8BFBDE8F0814FF016
:103A50007F471549002D0EDAFCF7A7FBB7EB400FA7
:103A60001ED300281CDD002CC8BF4FF07E54B8BF09
:103A70004FF0004414E00D4A22FA05F6344208BF24
:103A8000BDE8F081FCF791FBB7EB400F08D30028AD
:103A900006DD002C03DD4FF40000E8400444B4438D
:103AA0002046BDE8F0810000CAF24971FFFF7F00A7
:103AB0002DE9F05F05464FF00009002416E055F8A7
:103AC0002400FCF742FE074600221346FCF750FE96
:103AD0000AD055F8241055F82400FCF7BEFB074621
:103AE0004946FCF762FB8146601CC4B2032CE6DB4E
:103AF000484605F0D7FA81464846FCF726FE0746B9
:103B00003A460B4600200B49FCF730FD8246FCF795
:103B10005FFE0646002408E055F824003146FCF715
:103B20009CFB45F82400601CC4B2032CF4DB48461F
:103B3000BDE8F09F0000F03F002000BF0749C968C2
:103B400001F4005109B140F0010000BF0349C96808
:103B500001F4804109B140F00200704700100140BB
:103B600010B500F025F810BD10B504460E48407899
:103B700000B110BD14B900F01BF80FE004F04000D4
:103B800020B14FF400510948FDF747F904F08000D7
:103B900020B14FF480410548FDF73FF9002002496C
:103BA000087300BFE5E700004C0000200010014052
:103BB00010B54FF400510448FDF726F94FF4804149
:103BC0000148FDF721F910BD0010014010B5044671
:103BD00005480078022800D110BD03F06DFA204698
:103BE000FFF7C2FF00BFF7E74C0000202DE9F843C4
:103BF000044602464F486946B0EB420F09D94FF0E0
:103C0000E640B0EB420F94BF00204FF0FF30009031
:103C100030E0494B22F00040834271D947492046A9
:103C2000FCF71BFBFCF78BFE8046FCF729FD00F040
:103C30000300009042494046FCF70FFB054641490E
:103C40004046FCF70AFB06463F494046FCF705FBA9
:103C500007463E494046FCF700FB2146FCF7FAFACE
:103C60003946FCF7F4FA3146FCF7F1FA2946FCF73D
:103C7000EEFA04462546009C002C45DB294614F04C
:103C8000010F08461CD0FCF7E8FA06463049FCF75D
:103C9000E4FA3049FCF7DEFA3146FCF7DEFA2E4949
:103CA000FCF783FA3146FCF7D8FA2946FCF7D5FA37
:103CB0002946FCF77AFA14F0020F1CD0BDE8F8830D
:103CC000FCF7CBFA05462549FCF7C7FA2449FCF76F
:103CD0006CFA2946FCF7C1FA2249FCF766FA294634
:103CE000FCF7BBFA4FF07E51FCF75FFA14F0020FBD
:103CF00008BFBDE8F88380F00040BDE8F883FFE727
:103D00001046FFF7CDFBB4E76800B0F17F4F3CBF32
:103D10004FF07E50BDE8F88307D14FF00100FFF768
:103D200083FCBDE8F843FFF7B2BB2846BDE8F84383
:103D3000FFF7A8BBB61F927E490E494683F9223F82
:103D40001A61342C0020A23300A0FD390000C93FC5
:103D5000336D4C39DA82083CA0AA2ABEB93AB2BA0D
:103D6000CA9F2A3DDDFFFFBE002107E042F6E06169
:103D700000BF0A1EA1F1010399B2FAD1021EA0F1FF
:103D8000010398B2F2D170472DE9F05F81460C46ED
:103D900016494846FCF761FA8346FCF7D6FC07460D
:103DA000FFF7DCFD0546FCF7B7FC1FFA80FA13E0CD
:103DB0000F48407808B1BDE8F09F14B903F0F0FC5B
:103DC00007E003F0A1FA0A48807800F0020000B191
:103DD000F1E73220FDF72AF8BAF10000AAF101015B
:103DE0001FFA81FAE4DC00BFE5E700000000A04113
:103DF0004C0000202DE9F0411C4D1D4C6E14FDF7C8
:103E00008BF82846FCF762FF4CF25030FCF7C4FFF9
:103E10001848006920F002001649086120E0208857
:103E20004FF6FF71884208D034F8027B3A460023EF
:103E300029460120FDF718F800E0A41C20884FF661
:103E4000FF71884208D034F8027B3A460023A91C4F
:103E50000120FDF709F800E0A41C301F86B22D1DDB
:103E6000002EDCDCFCF7F6FFBDE8F08100FC00086A
:103E7000530100200020024001460148405C704789
:103E80005301002000200F4900BF07E00E4A024402
:103E900092F8002C01F8012B421C90B2B0F5806F13
:103EA000F4D3084A12780D2A0AD00649002004E00B
:103EB000FF2201F8012B421C90B2B0F5806FF7D3BE
:103EC000704700005301002000F00008014A11541F
:103ED00070470000530100202DE9F041C1F30A5260
:103EE000A2F2FF362F4A304B0D460446142E2FDA2D
:103EF000002E12DAFCF721FA00221346FCF750FCE0
:103F00004CD2002DA4BF0024254647DA25F00040FE
:103F1000204318BF254D41D018E0DFF894C02CFA9B
:103F200006F705EA070C5CEA040C08BFBDE8F0815F
:103F3000FCF703FA00221346FCF732FC2ED2002DC8
:103F400003DA4FF48010F0400544BD43002425E01F
:103F5000332EC8BFBDE8F081A6F1140C4FF0FF3737
:103F600027FA0CF73C4208BFBDE8F081FCF789FA5C
:103F700000221346FCF714FC10D2002D0DDA142E8B
:103F800008BF6D1C09D0C6F13400012101FA00F010
:103F90002044A04238BF6D1C0446BC43294620463D
:103FA000BDE8F0819C7500883CE4377E0000F0BFDE
:103FB000FFFF0F0001B5B0B04C21F748FCF7DDF86A
:103FC0000F22F649F448401CFCF7BEF800202E9062
:103FD0002A9029902890279026902590249023902D
:103FE00030980078242809D1239840F001002390CC
:103FF0000120E94948700021E748817000201E90A7
:104000001D90239800F0010010B10320219001E0E1
:1040100000202190DAE29DF884103098405C2090D6
:104020002098412802DB20985A2802DD012031B077
:1040300000BD9DF88400401CC0B221901FAA21A998
:10404000309803F071FC08B90220F0E71F98FCF7E4
:104050007CFBCDE9100106F075F9CDE91201FCF702
:104060005BFBC0B21E901E98FCF7F8FA0D901F99EA
:10407000FCF7F0F8CA490E90FCF7EFF80F90FCF748
:1040800064FBCDE9100104F0A9FACDE91201FCF7B7
:1040900043FB80B21D902098472802D04D2873D151
:1040A0002FE11E982B2870D024DC12286ED010DC53
:1040B000032873D006DC00286DD001286CD00228BC
:1040C00068D16AE0042840D00A2832D01128F7D1FC
:1040D00095E01C282ED006DC13287DD014287CD037
:1040E0001528EDD1B8E01E2825D0262857D028283D
:1040F000E6D1BAE03B2871D00ADCA0F131000A28F1
:1041000048D2DFE800F0B6E5E5E523D1D2D3D4D537
:104110005B287FD006DC3D286FD0502846D05A2837
:10412000CED176E05C2807D05D2867D05E28C7D165
:1041300088E000BF00BF00BF1D9828B92E9808B1C5
:10414000182074E701202E9000BF00BF00202290AD
:1041500091491E9808701E981C2805D01E981E288C
:1041600002D01E985C280ED11D9820B11D980A28F7
:1041700001D014205BE7884801781D9808448649DF
:10418000087000201D90A5E05FE171E038E005E0D7
:1041900001E001E09CE000BF00BF00BF00BF2E981F
:1041A00008B1182043E702202E9000BF0120229082
:1041B00079491E9848701E9826281CD11D981428ED
:1041C0000DD01D981E280AD01D98282807D01D98AC
:1041D000322804D014202AE713E03CE069E00A21E9
:1041E0001D9890FBF1F064306B49497808446A49A6
:1041F000487000201D906DE00CE062E021E000BFFF
:1042000000BF022022901E981138C1B2624841714D
:1042100060E000BF1D9838B9032022901E985A38DC
:10422000C1B25D4801710BE0042022901D980A285C
:1042300002D11E985A2801D11420F8E600201D90C2
:1042400048E000BF052022901E98C0F15E00C1B278
:10425000514881703EE000BF062022901E98C0F1B8
:104260001500C1B24C48C17034E00720229031E003
:1042700000BF082022902E9808B11820D7E603200E
:104280002E901E98312803D100214348817108E007
:104290001D980A2803D101213F48817101E01420B3
:1042A000C5E600201D9015E000BF00BF00BF00BFA5
:1042B00000BF092022901E983638C1B23648C1711D
:1042C00008E00A2022901D9808B11420AFE601E012
:1042D0001420ACE600BF1D98002801DD1720A6E6DB
:1042E0000121229801FA00F02599084008B1152013
:1042F0009DE60121229801FA00F0259908432590B6
:1043000063E11D98002801DD172090E61E9808281B
:104310004FD007DC082871D2DFE800F01516172A05
:104320002B2C834A3F2863D006DC092842D01E2864
:104330000CD03E2875D155E0422860D0432864D087
:1043400064286ED167E000BF00BF00BF0B20229041
:104350001E9810B1012805D103E003210E48017217
:1043600004E003E00C491E98087200BF00BF5AE049
:1043700000BF00BF0C2022901E98032804D0042800
:1043800006D0052812D10DE01021034881720DE0FE
:1043900020210148817209E09C050020540500207D
:1043A0000000C8420021F748817200BF00BF3AE018
:1043B00000BF00BF0D2022901E98072804D00828B7
:1043C00006D009280CD107E08021EE48417207E0B1
:1043D0004021EC48417203E00021EA48417200BFED
:1043E00000BF20E00F2022900121E64801731AE06F
:1043F0000F2022900221E348017314E011E00F2006
:1044000022900121DF4841730DE00F20229001210D
:10441000DC48817307E00F2022900121D948C17345
:1044200001E0142003E600BF0121229801FA00F008
:104430002599084008B11520F9E50121229801FAD3
:1044400000F0259908432590BFE0209845381628AC
:104450006FD2DFE800F00B12929218222C36923DB8
:10446000924D53595F65929292747E8810202290EB
:10447000C4491E9881F8440081E000202290C1497F
:104480001F9808617BE001202290BE481F9941617E
:10449000269840F00100269071E002202290B94851
:1044A0001F998161269840F00200269067E0032062
:1044B0002290B4481F99C161269840F004002690CC
:1044C0005DE004202290AF491E9881F8200056E05C
:1044D000052022901F98FCF738F9CDE9100105F06E
:1044E00031FFCDE91201FCF7F8F8A649486246E031
:1044F00006202290A3481F99816240E0112022905B
:10450000A0481F9981643AE0072022909D481F9996
:10451000C16234E0082022909A481F9901632EE07E
:104520000920229098491F98FCF778F902D226209A
:104530007DE522E093491E9881F834001FE00A20AF
:10454000229090481F998163279840F0010027909E
:1045500015E00B2022908B481F99C163279840F0EB
:10456000020027900BE00C20229086481F990164DE
:10457000279840F00400279001E0142057E500BF81
:104580000121229801FA00F02499084008B119206D
:104590004DE50121229801FA00F040F26131084016
:1045A00058B11F98FCF7D1F800221346CDE912014B
:1045B000FCF7DEF801D2042039E50121229801FA46
:1045C00000F024990843249000BF00BF9DF8841098
:1045D0003098405C00287FF41EAD279818B12E98C3
:1045E00008B902202E90249800F0200030B16548D0
:1045F000406A6649884201DD1B2018E5239800F0D7
:104600000100E0B1249800F0010008B916200EE581
:104610005C48C078012848D15A4800690F90FCF7DF
:1046200094F84FF066325A4BCDE91001FBF72CFF9E
:10463000CDE91201FCF7CCF85249086135E0514848
:10464000807801280FD12E9802282ED14D4840782D
:1046500050282AD04B48407810B3249800F001002D
:10466000F0B91620E3E44B484078C8B9249800F02C
:104670000100B0B14348C078012816D14148006913
:104680000F90FCF762F84FF06632414BCDE9100114
:10469000FBF7FAFECDE91201FCF79AF839490861F7
:1046A00003E03C48406937490861249800F4807071
:1046B00018B9384801693348016332480078042842
:1046C00009D1249800F0400008B91C20AFE42498D8
:1046D00020F0400024902B48407910B101280ED1E1
:1046E00006E000202D9001202C9002202B900DE060
:1046F00002202D9000202C9001202B9006E001201C
:104700002D9002202C9000202B9000BF00BF1D4850
:10471000C078012829D100201C9023E001211C9899
:1047200001FA00F027990840C0B1164838301C99AA
:1047300050F821000F90FCF708F84FF06632144B48
:10474000CDE91001FBF7A0FECDE91201FCF740F81E
:1047500001460C4838301C9A40F822101C98401C26
:10476000C0B21C901C980328D8DB2E98032813D1C4
:104770000448807901280FD1279880F0040058B1AF
:10478000252054E49C05002000007F43809698007B
:104790006666394054050020FA4A2C3207CA19AB24
:1047A00007C3259800F40070A0B1F748C079062827
:1047B00001DD1D203BE4F3488179F348C079814253
:1047C00008D0F148C07919A9149003F0CBFF08B9BB
:1047D00007202CE4EC4800780A2802D05C287DD120
:1047E0009DE0279808B91A2021E4249800F0500091
:1047F00008B91C201BE4E448806A0F90FBF7A5FF72
:10480000CDE9100105F09EFDCDE91201FBF784FF13
:10481000C0B22A902A98062801DD1D2007E4DA4854
:1048200090F8200014280CD0D74890F820000228D7
:1048300005D1249800F0800018B1142005E414205C
:104840007FE4249820F0500024902A98002804DD6A
:104850002A98401EC0B22A9002E0CB48C0792A9024
:10486000C94914312A9803F07DFF08B9072068E48C
:1048700000201C904FE001211C9801FA00F02799BC
:10488000084060B3C04890F82000142837D1BD48D4
:1048900038301C9950F821001390BA48203050F855
:1048A000210012901399FBF7D2FC1490B6483830CF
:1048B0001C9950F82100014613901498FBF7C7FC8F
:1048C0000146B14814301C9A40F822101C98022866
:1048D0001DD1AC48406C1490AB4801E074E016E088
:1048E00014301C9950F8210013901499FBF7AFFC79
:1048F0000146A54814301C9A40F8221007E0A2484F
:1049000038301C9950F82120243840F821201C9878
:10491000401CC0B21C901C980328ACDB1CE12798FB
:1049200008B91A200DE400201C9049E001211C98D0
:1049300001FA00F027990840A0B319A91C9851F872
:10494000200013908F4820301C9950F821001290BD
:104950001399FBF77CFC14908B4838301C9950F865
:104960002100014613901498FBF771FC014686481C
:1049700038301C9A40F822101C9802281CD181481B
:10498000406C1490804838301C9950F821001390E6
:104990001499FBF75CFC01467B4838301C9A40F8C0
:1049A000221009E0FFE7774838301C9950F82120A1
:1049B0007548383040F821201C98401CC0B21C902B
:1049C0001C980328B2DBC7E02E9803286FD02798E5
:1049D000F0B300201C9067E001211C9801FA00F060
:1049E0002799084048B9674820301C9950F8212081
:1049F0006548383040F8212052E063480078352877
:104A00004ED061480079B0BB5E4838301C9950F8F0
:104A1000210019A913901C9851F8200012901399A5
:104A2000FBF7C3FB1490584838301C9950F821000C
:104A3000014613901498FBF7B8FB014652483830F2
:104A40001C9A40F822101C98022829D14D4800E0F9
:104A50002DE0406C14904C4838301C9950F82100DF
:104A600013901499FBF7A1FB0146474838301C9A74
:104A700040F8221014E0FFE7424820301C9950F81B
:104A8000210014904048383050F8210013901499B8
:104A9000FBF78BFB01463C4838301C9A40F822104B
:104AA0001C98401CC0B21C901C98032894DB36480C
:104AB0000078282842D006DC1C2809D01E2808D0FF
:104AC000262847D139E035283AD0662842D136E049
:104AD00000BF2D4800781C2807D12B49143106202F
:104AE00003F040FE48B907200FE42749143107209E
:104AF00003F038FE08B9072007E42798D0B100205A
:104B00001C9013E001211C9801FA00F0279908403D
:104B100040B91C4820301C9950F821201A48143004
:104B200040F821201C98401CC0B21C901C980328FF
:104B3000E8DB01E000202E900CE000BF0AE009E075
:104B40001148407828B110484078012801D01E2033
:104B500068E400BF00BF00BF00BF0B48407850288A
:104B600004D1279800280BD01F205BE42E98022840
:104B700006D10548407848B927980028F8D12E90EA
:104B800018E20000540500209C050020FB48006945
:104B90001190FBF7DAFD00221346CDE91201FBF775
:104BA000E7FD01D116203DE4F44840788C287DD003
:104BB00006DC01280BD002280ED003280BD110E010
:104BC0008D2875D08E2874D08F28F7D1BFE1279813
:104BD00008B900202E90ECE1239840F004002390C7
:104BE00000BF279808B91A201CE401212D9801FA6A
:104BF00000F001222C998A4010432799084008B9F7
:104C000020200FE4DE482D9950F821001290DB4857
:104C1000383050F8210011901299FBF718FB1490CE
:104C2000D7482C9950F821001290D448383050F8C9
:104C3000210011901299FBF70AFB1390249800F0C1
:104C40008000A0B3249820F0800024900C22CB494F
:104C50003831CB48FBF79CFA08B9212068E4C748F3
:104C6000C078012811D1C548C06A0D90FBF76DFDD1
:104C70004FF06632C34BCDE90E01FBF705FCCDE9E1
:104C80001001FBF7A5FDBD49C86213990846FBF763
:104C9000E4FA0B90FBF759FDCDE90E011499084693
:104CA000FBF7DBFA0790FBF750FD03E054E1A0E0CF
:104CB0004CE152E1CDE90A01B048C06A0390FBF72C
:104CC00044FDCDE90601AD48C06A0190FBF73DFD0A
:104CD0000022AD4BCDE90201FBF7D6FBCDE9040183
:104CE000DDE90623FBF7D0FBCDE90801DDE90A2366
:104CF000FBF7C4FBCDE90C01DDE90E23FBF7BEFB9E
:104D0000CDE91001FBF764FD129000211298FBF72A
:104D10007BFD01D222200BE4DDE9131000F01EFD23
:104D20000B90FBF712FDCDE90E011298FBF70DFD7C
:104D3000CDE90A0104F090F981F00041CDE90C01C0
:104D4000DDE90E23FBF712FCCDE91001FBF740FD76
:104D500012908A484078032803D1129880F00040CE
:104D600012908648C06A00211190FBF74DFD09D2D0
:104D7000129880F0004012908048C06A80F0004194
:104D80007E48C162DDE91210FBF767FA0C901499B6
:104D9000FBF760FA0D90FBF7D8FC00227B4BCDE9C6
:104DA0000E01FBF771FBCDE91001FBF711FD014688
:104DB000724814302D9A40F8221012991498FBF77B
:104DC0004CFA0C901399FBF7F0F90D90FBF7BDFC32
:104DD00000226E4BCDE90E01FBF756FBCDE9100129
:104DE000FBF7F6FC0146654814302C9A40F8221077
:104DF000ABE001212D9801FA00F001222C998A40A4
:104E000010432699084008B923202BE4249820F069
:104E10000E0024905948C078012829D100201C9008
:104E200023E001211C9801FA00F026990840C0B146
:104E3000524814301C9950F821000B90FBF785FC68
:104E40004FF066324F4BCDE90C01FBF71DFBCDE96E
:104E50000E01FBF7BDFC0146484814301C9A40F88F
:104E600022101C98401CC0B21C901C980328D8DB50
:104E7000424814302D9950F82100014610901498A2
:104E8000FBF7E5F914903D4814302C9950F82100B7
:104E9000014610901398FBF7DAF91390DDE913102F
:104EA00000F05CFC1290354814302C9950F8210029
:104EB0001090324814302D9950F821000F9010991D
:104EC00000F04CFC2D49C8620846C06A01460C90AF
:104ED0001298FBF7BCF90D90FBF737FC21F000416D
:104EE000CDE90E01FBF774FC11901198FBF72DFC36
:104EF000274A284BCDE90E01FBF752FC24D211982A
:104F0000FBF723FC0022214BCDE90E01FBF748FC07
:104F100001D2212035E41948C06A0990FBF715FC3D
:104F20001D4A1E4BCDE90A01FBF7AEFACDE90E0191
:104F30001198FBF70AFCCDE90C01DDE90E23FBF724
:104F40002FFC01D221201CE400BF32E000BF2398D7
:104F500040F01000239000BF00BF084840788E2822
:104F600003D0064840788F2803D1239840F00800EA
:104F700023902798A0B91A201CE400009C0500206B
:104F80007405002066663940000010400000E03FD4
:104F90007B14AE47E17A743FFCA9F1D24D62503FD9
:104FA0000C22F949F948FBF7F3F808B9212010E47D
:104FB00000BF00BF239800F0010020B1249820F02A
:104FC0002100249004E040F2213124988843249069
:104FD0002E9818B1249820F47C402490EA48383860
:104FE000007B48B1249800F0400008B91C2015E46B
:104FF000249820F040002490E3483838407B50B19A
:10500000E3492498084008B91C2007E4E049C94353
:10501000249808402490DC483838807B48B1249894
:1050200000F4403008B91C2008E4249820F44030F3
:105030002490D5483838C07B50B1D54910392498D0
:10504000084008B91C2012E4D24924980840249052
:10505000249808B124200AE416A815900021159878
:10506000016041608160239800F0010090B32598B1
:1050700020F0490008B1102054E4C34838380078C3
:10508000352805D0C0483838007808B1102049E4E8
:10509000BE482038016915984160BC482038407AE4
:1050A000BA492039097A08438DF86000B649383981
:1050B00016A800F075FB1490149848B9B34920392C
:1050C000B1483838D0E90E23006CC1E90823886262
:1050D000149827E4FFE7B04890F8480000F0020079
:1050E000C0B3A9483838407801280DD0A6483838D0
:1050F0004078022808D0A44838384078032803D0E4
:10510000239840F040002390279838B12E98022829
:1051100004D1239840F08000239024E09B4820385D
:10512000407A10281FD1994820380078012809D0EA
:10513000964820380078022804D094482038007817
:10514000032808D1239800F0400018B1239840F0BC
:105150002000239007E0239800F0400018B923981E
:1051600040F02000239088483838406A8749203929
:10517000C86185483838807848700846407828B13A
:105180001598007A40F00801159801727E48383869
:1051900000697E49203948610846416915980160D7
:1051A00079483838006B149078482038006913909B
:1051B0001499FBF729FB03D1239800F0200020B3BA
:1051C00072482038407AD0B1239800F08000B0B9FE
:1051D000239800F0400038B16C482038407A002114
:1051E000149003F027FF0AE067483838006B1490EA
:1051F00066482038407A1390149903F01BFF6248E8
:105200003838006B614920390861239800F040006C
:1052100020B95E4820380169159841605A483838ED
:1052200090F834005949203908760846417A5648A2
:105230003838807A81420FD01598406814905248CF
:105240003838807A1390149903F0F4FE4E483838B9
:10525000807A4E49203948721598007A4B49203996
:10526000497A08431599087248482038017A464817
:105270003838407A814218D043483838407A149000
:10528000FEF7A4FC40483838407A20B900203F4956
:105290002039087209E03D482038007A3A49383907
:1052A000497A08433949203908721598007A3749F4
:1052B0002039097A0843159908723348383800783C
:1052C000042805D130483838806A149001F01CF861
:1052D0002D48383840792D49203908712A48383806
:1052E000C07888702E9803281ED1274838388079D6
:1052F00048710846407918B90021234838380164BC
:1053000021483838006C149020482038406C1390A5
:105310001499FBF779FA07D01B483838006C1B4901
:105320002039486404F0BCFF1848203881791648B9
:105330003838C07981420CD013483838C0791349C5
:1053400020398871084619A90EC92C300EC004F006
:10535000A7FF0D48383800790C492039C8700A4831
:105360003838007826284AD006DC0A2816D01C28AF
:1053700029D01E2863D127E0282846D05C284AD0AF
:1053800066285CD153E00000D4050020740500209D
:1053900050000200BFFFFDFFA0300020B2492A9854
:1053A00003F07FFCB14881792A9881420AD1AF4944
:1053B000AD481438D0E90523C069C1E90B2348631F
:1053C00004F06EFF3BE000BF1598007A40F0010149
:1053D000159801722E9820B1A3482430159900F039
:1053E000D1FFA148159900F0CDFFA0499E4814387F
:1053F000D0E90523C069C1E9082388621FE09B4901
:105400002031062003F04DFC19E098492031072097
:1054100003F047FC13E0954993481438D0E90E2374
:10542000006CC1E90E23086404F03AFF07E08F48DE
:1054300000218163C163016404F032FF00BF00BF3B
:1054400089481438407889490870084600785028FF
:105450005BD02E98022858D100201490084600787E
:10546000012805D180482430159900F08BFF3AE0DF
:105470007E48007858B91598007A40F001011598D7
:10548000017279482430159900F07CFF2BE07748B1
:105490000078022803D075480078032816D1239895
:1054A000C0F38000DDE92C322B99CDE90123CDE951
:1054B00003106D481438C06A6B4B6C4A2032009060
:1054C00003F12400159900F043FD0CE01598007AD3
:1054D00040F004011598017263482430239A15990D
:1054E00000F08EFF1490149848B960495E48143853
:1054F000D0E90E23006CC1E90823886204E0149807
:10550000012801D100F0C8F800BF57481438007ACC
:105510005649C8710846C07980B301F0CDFD5348A3
:10552000C079032809D152480078022833D00820D6
:1055300004F0E0FE02F034F92DE001204B49087040
:1055400000200871C8700021484841700020474978
:1055500088714872087264204549087248728872DE
:1055600008460078022813D0404880793F492C3102
:10557000149003F0F7F810B9072046E40EE004F0A9
:105580008FFE0021084603F01DFD0020FEF7ECFA17
:10559000082002F0E5FA00203449C8713248143876
:1055A000007BB8B130481438806A0F90FBF7CDF813
:1055B000CDE9100104F0C6FECDE91201FBF7ACF80D
:1055C000C0B2299028481438007B014614902998CD
:1055D00000F0FDFF24481438407BD0B12248143835
:1055E000806A0F90FBF7B1F8CDE9100104F0AAFE34
:1055F000CDE91201FBF790F8C0B228901A48143890
:1056000090F82000184A343201461490289804F08B
:10561000FCFE15481438807B40B11348143890F8CC
:10562000440011493431149000F0CEFF0E48143874
:10563000C07BB0B10C481438806A0F90FBF785F836
:10564000CDE9100104F07EFECDE91201FBF764F80C
:10565000C0B22990044934312998FDF7EBFF01F0DD
:10566000C7FA002056E40000B005002054050020D1
:105670004C00002010B548210648FAF77EFD054988
:1056800088792C3103F06EF810B9072002F034FF4E
:1056900010BD00005405002010B50249024804F076
:1056A000FBFB10BD600000207405002070B50546AE
:1056B0002C212748FAF761FD01202549087008468A
:1056C0004570032088700120C8702248006D8860F2
:1056D000002433E000211E481C3040F824101C3800
:1056E00081890120A040284018B11B4830F81400DF
:1056F00000E000200143164881810120A04028409D
:10570000D0B11348807B401C114988731148243064
:1057100050F824104FF04040FAF79FFD06460C4920
:1057200048683146FBF77AF802D20948406800E041
:1057300030460749486000BF601CC4B2032CC9DB77
:10574000034800210161416181610621017670BD3C
:10575000E8050020A0300020C6A400082DE9F04193
:1057600004460D4629462846FAF777FD07462146A6
:105770002046FAF772FD80463946FAF716FD0646CE
:1057800003F090FCBDE8F08110B500F041FF00F09F
:1057900006F800F01AFF002000F018FF10BD704757
:1057A00070B504460D4628692060207A40F0040058
:1057B0002072104890F8480000F0200030B105F148
:1057C000380004F00DFB08B10F2070BD214605F133
:1057D000380000F0D7FD0848007848B901F0BAF960
:1057E00030B120200449087003F0FCFC04F07AFA80
:1057F0000020EAE7A03000204C0000202DE9FF5FE8
:1058000082468946DFF874B0002430E059F824005D
:105810000021FAF7F9FF28D059F824105AF824008B
:10582000FAF74DFD0190FAF790FF21F00048074686
:105830005846FAF78AFF3A464346CDE90201FAF79D
:1058400097FF03D25846FAF780FF0AE059F8241070
:105850005AF82400FAF733FD0746FAF776FF21F0ED
:1058600000410546FAF7B4FF8346601CC4B2032C1E
:10587000CCDB584604B0BDE8F09F0000FFFF7F7FFF
:105880002820002817DB00F01F02012191400B4A5D
:10589000430942F8231000BF00BF00BFBFF34F8F82
:1058A00000BF00BF00BF00BF00BF00BFBFF36F8FCE
:1058B00000BF00BF00BF00BF7047000080E100E0F4
:1058C000704700000022002100BF0F48806881B2AD
:1058D0000E4890F8480000F0400008B981F4E0510B
:1058E00079B100200AE00A4B33F810300B401BB1AD
:1058F000012383401343DAB2431CD8B20328F2DBFE
:1059000000BF104670470000000C0140A03000208E
:10591000D2A4000810B5044600F00EF810B90548EE
:10592000407800B110BDFFF7ABFF2046FFF7BEFE89
:1059300000BFF7E74C0000200548007828B1044874
:105940000078062801D0012070470020FCE7000005
:10595000E80500202DE9F04700260024FFF7ECFFC2
:1059600008B9BDE8F087E448407850B10620E34923
:10597000087004F04DF90020DF490870FFF7A0FF20
:10598000EFE7DE480078012806D002287ED00528FF
:105990007DD006287CD19DE1D949D8481C3004F03F
:1059A0007BFA0020D5498881887381F8280051E06E
:1059B000D2484078D14991F82820012191400840EF
:1059C000F0B3CE48807B401CCC498873CD4890F81A
:1059D000490091F8282001219140084080B1C74832
:1059E000C07820B1C548406880F0004001E0C3485D
:1059F0004068C24991F828201C3141F822000FE08C
:105A0000BE48C07810B1BD48406803E0BB4840685C
:105A100080F00040B94991F828201C3141F822005B
:105A2000B6488089B54991F82810B74A32F8111064
:105A30000843B2498881002091F82810B04A00E05C
:105A400001E042F82100AD4890F82800401CAB4925
:105A500081F82800A94890F828000328A8DBA74867
:105A6000807B01280EDDA549887BFAF7F7FD074604
:105A700003F018FB0546A14881682846FAF7EDFBBC
:105A80009E4988609D4880689C4902E022E0CCE005
:105A90002BE10861084680899749C88001F0A8F881
:105AA0009649103101F10C0000F0EEFD01280DD1F6
:105AB00004209149087103F095FB04F013F90120CB
:105AC0008E4981F829000220087002E006208B49E7
:105AD00008700EE1894890F8290000B909E187486B
